:020000040800F2
:10000000C008002055110008B1020008B302000822
:10001000B7020008BB020008BF0200080000000091
:10002000000000000000000000000000C302000803
:10003000C502000800000000C7020008C90200084D
:100040006F1100086F1100086F1100086F11000890
:100050006F1100086F1100086F1100086F11000880
:100060006F1100086F1100086F1100086F11000870
:100070006F1100086F1100086F1100086F11000860
:100080006F1100086F1100086F1100086F11000850
:100090006F1100086F1100086F1100086F11000840
:1000A0006F1100086F1100086F1100086F11000830
:1000B0006F1100086F1100086F1100086F11000820
:1000C0006F1100086F1100086F1100086F11000810
:1000D0006F110008050800086F1100086F11000873
:1000E0006F1100086F1100086F1100086F110008F0
:1000F0006F1100086F1100086F1100086F110008E0
:100100006F1100086F1100086F1100086F110008CF
:100110006F1100086F1100086F1100086F110008BF
:100120006F1100086F1100086F1100086F110008AF
:1001300000F002F800F03AF80AA090E8000C8244BF
:100140008344AAF10107DA4501D100F02FF8AFF29C
:10015000090EBAE80F0013F0010F18BFFB1A43F0A5
:100160000103184788200000A8200000103A24BF8F
:1001700078C878C1FAD8520724BF30C830C144BF0C
:1001800004680C607047000000230024002500264E
:10019000103A28BF78C1FBD8520728BF30C148BFEA
:1001A0000B6070471FB51FBD10B510BD01F028FED4
:1001B0001146FFF7F7FF00F009F801F05AFE03B40B
:1001C000FFF7F2FF03BC00F0BFFA0000002600F0CA
:1001D00051FA4FF4A06000F0DDFF4FF4165000F02C
:1001E000C2FA00F063F900F087F900F0F1F922A0FB
:1001F00001F0C4FD24A001F0C1FD3BE024480088CB
:1002000000F4004018B322480088C0F30D05002414
:1002100005E02048005D20490855601C84B2AC42CE
:10022000F7DB00201A4908801B4800F0BDFB4FF4A3
:10023000FA7000F038FA194800681949086019483E
:1002400000681949086010A001F098FD12E0701CC8
:1002500086B21E2096FBF0F100FB116038B91348FE
:10026000006808B9012000E00020104908600A2059
:1002700000F03DFAC2E700000D0A4772626C2030C0
:100280002E39670D0A0D0A006F6B0D0A0000000081
:1002900020000020620100206800002034000020BF
:1002A0002C000020380000203000002094812142E2
:1002B000704700BFFEE700BFFEE700BFFEE700BFDC
:1002C000FEE7704770477047704700000CB500208C
:1002D000019000906C48006840F480306A490860E2
:1002E00000BF6948006800F4003000900198401C8D
:1002F0000190009818B90198B0F5A06FF1D162484B
:10030000006800F4003010B10120009001E00020EE
:1003100000900098012843D15C48006840F010002C
:100320005A4908600846006820F003000860084643
:10033000006840F002000860534840685249486035
:100340000846406848600846406840F4806048605D
:100350000846406820F47C1048600846406840F435
:10036000E81048600846006840F08070086000BFF0
:100370004548006800F000700028F9D04248406805
:1003800020F00300404948600846406840F0020001
:10039000486000BF3C48406800F00C000828F9D1D4
:1003A0000CBD10B5FFF792FF10BD10B536480068C0
:1003B00040F001003449086008464068344908406C
:1003C0003149486008460068324908402E490860B3
:1003D0000846006820F4802008600846406820F441
:1003E000FE0048604FF41F008860FFF7DAFF4FF00F
:1003F00000602949086010BD10B5002100200022CE
:10040000214B5B6803F00C0121B1042906D00829B7
:1004100028D107E0214B224C236027E01F4B204CC2
:10042000236023E0184B5B6803F47010164B5B6885
:1004300003F48032022303EB904022B9194B43436B
:10044000174C23600DE0104B5B6803F4003323B1BD
:10045000144B4343124C236003E0104B4343104CB6
:10046000236003E00D4B0E4C236000BF00BF064B22
:100470005B68C3F303130C4CE15C094B1B68CB4076
:10048000074C236010BD0000001002400020024015
:100490000000FFF8FFFFF6FE08ED00E000127A0012
:1004A0000000002000093D000400002008B50121E3
:1004B000482001F0F9F92020ADF8000010208DF857
:1004C000030003208DF802006946094800F030FF60
:1004D0002021074800F0D9FF2020ADF80000694630
:1004E000044800F025FF2021024800F0CEFF08BD9F
:1004F000000C01400018014008B50121442001F022
:10050000D3F91820ADF8000048208DF803006946A3
:100510002C4800F00DFF0120ADF8000028208DF8D8
:1005200003006946284800F003FF08BD10B50446E3
:1005300014B10120254908702448007858B31021CF
:10054000204800F088FF50B108211E4800F083FFCA
:1005500028B101211C4800F07EFF01281BD10A2090
:1005600000F0C5F80020194908701021154800F066
:1005700072FF08B9012010BD0821124800F06BFF7E
:1005800008B90220F7E701210F4800F064FF0128B5
:1005900015D10320EFE710210A4800F05CFF012885
:1005A0000DD10821074800F056FF012807D101218D
:1005B000054800F050FF10B90120044908700020E0
:1005C000D9E7000000180140000801401400002095
:1005D00008B50121C82001F067F92020ADF800001E
:1005E00010208DF8030003208DF8020069461F4893
:1005F00000F09EFE20211D4800F047FF0120ADF8CD
:10060000000069461A4800F093FE0121184800F0E6
:100610003EFF0220ADF800006946154800F088FE54
:100620000221134800F031FF0420ADF800006946B4
:100630000F4800F07DFE04210D4800F028FF08203F
:10064000ADF8000069460A4800F072FE082108482B
:1006500000F01BFF0120ADF800006946034800F0E0
:1006600067FE0121014800F012FF08BD000C0140A7
:100670000018014010B56FF0040000F0DAFD2E48BC
:1006800000682E49B0FBF1F02D490870084600784B
:1006900000EB4001C1EBC0104FF6FF7101EAC00052
:1006A0002849088010BD0146254A12784A434FF078
:1006B000E0235A6100229A611A46126942F001024F
:1006C0001A6100BF4FF0E022106900F001021AB178
:1006D00000F48032002AF5D04FF0E022126922F0B7
:1006E00001024FF0E0231A6100229A61704701462F
:1006F000144A12884A434FF0E0235A6100229A615B
:100700001A46126942F001021A6100BF4FF0E0225E
:10071000106900F001021AB100F48032002AF5D00D
:100720004FF0E022126922F001024FF0E0231A613B
:1007300000229A61704700000000002000127A0039
:100740001600002018000020014600BF704700BFBF
:100750004B4A128802F04002002AF9D0C2B2484B3C
:100760001B1D1A80704710B586B00446012144F263
:10077000040001F099F8424801F0FAF84FF40070D3
:10078000ADF8140003208DF8160018208DF817001E
:1007900005A93C4800F0CCFD4FF48060ADF8140092
:1007A00004208DF8170005A9364800F0C1FD25206A
:1007B0008DF8000003208DF801008DF80200012063
:1007C0008DF80300684600F0EAFC01940020ADF8C3
:1007D0000800ADF80A00ADF80C00ADF810000C20D0
:1007E000ADF80E0001A9264801F005F9012240F2FA
:1007F0002551234801F097F90121214801F087F99B
:1008000006B010BD10B540F225511D4801F070FA38
:1008100010B31B4801F0ECF9C4B21B48008800F487
:100820000040C8B91848008800F4804060B10A2C24
:1008300003D000201449088020E01348008840F4C9
:1008400000401149088019E00D2C06D10E4800889F
:1008500040F480400C49088010E00B480088C0F349
:100860000D000A490C5408480088401C06490880BD
:1008700008460088C72801DD0020088010BD000060
:1008800000380140000801402000002062010020E3
:100890002DE9FF5F81468A4693460020039000279A
:1008A0000290019000909AF8000000EB090616F8FB
:1008B000018BB8F12D0F04D10120019016F8018BA6
:1008C00004E0B8F12B0F01D116F8018B20E0A8F15C
:1008D000300000F0FF08B8F1090F0EDC0298401C50
:1008E000C0B20290009808B1781E47B2039800EB9E
:1008F000800008EB4000039008E0B8F1FE0F04D13F
:10090000009810B90120009000E002E016F8018B79
:10091000DDE700BF029818B9002004B0BDE8F09FE1
:10092000039801F052FB04460D4600221346204670
:10093000294601F0B1FA27D009E07D4A7D4B2046D7
:10094000294601F055FB04460D46B81C47B217F185
:10095000020FF2DD002F08DA774A784B204629464D
:1009600001F046FB04460D460EE0002F0CDD00BFF3
:100970000022734B2046294601F03AFB04460D46FF
:10098000781E40B2071EF3DC019820B185F00040CC
:10099000CBE9004001E0CBE90045A6EB0900401E91
:1009A0008AF800000120B8E7FEB504460020029056
:1009B00097E09DF80800265C9DF80800401CC0B236
:1009C00002906A4602A92046FFF762FFDDE90001B6
:1009D00001F0CEFAC5B24D2E4FD006DC472E09D01D
:1009E000492E71D04A2E7BD174E0582E54D0592E06
:1009F00076D15CE0032D17D005DC4DB1012D0BD075
:100A0000022D38D10CE01E2D1FD04B2D33D10FE01D
:100A100000204C4908702EE001204A4908702AE065
:100A200002204849087026E003204649087022E069
:100A30000420444908700021434A116051609160CC
:100A4000D16000201061506115E000203F4908602E
:100A50003F4908603F4908603F4908603D490860D8
:100A60003D4908600021384A116051609160D160B1
:100A70001161516100BF00BF32E0032D02D0052D8E
:100A800008D103E001203549086003E00020334924
:100A9000086000BF00BF23E02B4ADDE9000103C26C
:100AA000DDE9000101F034FA2A49086018E0264A1D
:100AB000DDE90001C2E90201DDE9000101F028FAE7
:100AC000254908600CE0FFE7254ADDE90010C2E98E
:100AD000001005E0224ADDE90010C2E9021000BF63
:100AE00000BF9DF80800205C00287FF462AF1B481F
:100AF0000068012804D101211A4800F0C6FC03E077
:100B00000121184800F0C3FC0E48007805280DD2DA
:100B1000DFE800F00306090A0B0000F047FA05E0E1
:100B200000F044FA02E001E000E000BF00BFFEBDBB
:100B30007B14AE47E17A843F9A9999999999B93F84
:100B40000000244024000020300200202C0000205F
:100B50003000002034000020380000202800002051
:100B600048020020000C014010B5F8480068F84920
:100B70000860F8480068F8490860F8480068F349D8
:100B8000096888423BD1F6480068F2490968401A72
:100B9000F44908600868002801DB014600E0414292
:100BA0000C46F0480068002814DA0120EE4908607D
:100BB0000BE0E9480068401EE749086000F084FA4D
:100BC000E9480068401CE8490860E7480068A0421E
:100BD000EFDD4FE00120E44908600BE0DE480068EB
:100BE000401CDD49086000F088FADF480068401CBE
:100BF000DD490860DC480068A042EFDD3AE0D748F4
:100C00000068D2490968401AD64908600868002877
:100C100001DB014600E041420C46D2480068002852
:100C200014DA0120D04908600BE0C9480068401E72
:100C3000C749086000F002FACB480068401CCA4966
:100C40000860C9480068A042EFDD13E00120C649F2
:100C500008600BE0BE480068401CBD49086000F019
:100C600006FAC1480068401CBF490860BE480068D9
:100C7000A042EFDD10BD10B50020BC490860B748A8
:100C80000068B2490968401AB24909680844B44981
:100C90000968401AB3490860AC480068AC4908606C
:100CA000AC480068AC4908600120AF4908602BE0FF
:100CB000AE480068002811DBA5480068401CA44924
:100CC000086000F0EDF9A3480068A5490968401ADA
:100CD000A6490968081AA549086010E09E480068FE
:100CE000401E9D49086000F021FA9C480068974921
:100CF0000968401A9D49096808449C4908609A4857
:100D00000068401C98490860974800689549096840
:100D10008842CDDD10BD10B50020944908608B4895
:100D200000688E490968401A8A49096808448C4954
:100D30000968401A8B490860844800688449086043
:100D400084480068844908600120874908602BE0D6
:100D500086480068002811DB7D480068401E7C49F9
:100D6000086000F09DF97B4800687D490968401AD9
:100D70007E490968081A7D49086010E076480068D5
:100D8000401E7549086000F0D1F970480068734949
:100D90000968401A7549096808447449086072482E
:100DA0000068401C704908606F4800686D49096818
:100DB0008842CDDD10BD10B500206C490860634845
:100DC000006866490968401A65490968084461492C
:100DD0000968401A634908605C4800685C4908601B
:100DE0005C4800685C49086001205F4908602BE0AE
:100DF0005E480068002811DB55480068401E5449D1
:100E0000086000F04DF95648006852490968401AD8
:100E100056490968081A5549086010E04E480068AC
:100E2000401C4D49086000F081F9484800684B4972
:100E30000968401A4D49096808444C4908604A4805
:100E40000068401C484908604748006845490968EF
:100E50008842CDDD10BD10B50020444908603F48F0
:100E600000683A490968401A3D4909680844394907
:100E70000968401A3B4908603448006834490860F2
:100E800034480068344908600120374908602BE085
:100E900036480068002811DB2D480068401C2C49AA
:100EA000086000F0FDF82E4800682A490968401AD9
:100EB0002E490968081A2D49086010E02648006884
:100EC000401C2549086000F031F9244800681F499A
:100ED0000968401A254909680844244908602248DD
:100EE0000068401C204908601F4800681D490968C7
:100EF0008842CDDD10BD19490968144A1268914233
:100F000007DD17490968134A1268914201DD012083
:100F10004BE0124909680D4A1268914207DA1049FC
:100F200009680C4A1268914201DD02203DE00B493C
:100F30000968064A126891421ADA09490968054A9D
:100F40001268914214DA03202FE000002C000020E8
:100F50004000002030000020440000203400002029
:100F6000380000204C0000203C00002048000020F9
:100F700028490968284A1268914207DD274909680B
:100F8000274A1268914201DA04200EE021490968DB
:100F9000214A1268914205D020490968204A126806
:100FA000914201D1052000E00620704710B5FFF7FF
:100FB000A2FF0446072C2AD2DFE804F029040A1015
:100FC000161C2200012017490860FFF744FF1EE0AD
:100FD000022014490860FFF7EEFE18E003201149D3
:100FE0000860FFF798FE12E004200E490860FFF742
:100FF00042FE0CE005200B490860FFF7B5FD06E056
:1010000000200849086008A000F0B8FE00BF00BF3B
:1010100010BD0000340000202C000020380000200B
:101020003000002050000020CEDEB7A8B2E5B2B9F3
:101030002E4572726F72210A0000000010B5022462
:1010400002211F4800F023FA0EE001211C4800F0A5
:101050001CFA1E20FFF74BFB0121194800F017FA7C
:101060001E20FFF744FB641E002CEEDC10BD10B503
:1010700002240221124800F008FA0EE00121104873
:1010800000F003FA1E20FFF732FB01210C4800F0AC
:10109000FEF91E20FFF72BFB641E002CEEDC10BDBA
:1010A00010B508480068012803D0064800680428E5
:1010B00002D1FFF7DCFF01E0FFF7C0FF10BD000029
:1010C000001801405000002010B5022408211F48DC
:1010D00000F0DDF90EE004211C4800F0D6F91E20D6
:1010E000FFF705FB0421194800F0D1F91E20FFF796
:1010F000FEFA641E002CEEDC10BD10B5022408219F
:10110000124800F0C2F90EE00421104800F0BDF9C9
:101110001E20FFF7ECFA04210C4800F0B8F91E205D
:10112000FFF7E5FA641E002CEEDC10BD10B5084890
:101130000068012803D006480068022802D1FFF7A2
:10114000DCFF01E0FFF7C0FF10BD00000018014008
:10115000500000200948804709480047FEE7FEE7A5
:10116000FEE7FEE7FEE7FEE7FEE7FEE7FEE7FEE757
:1011700004480549054A064B70470000AB030008C8
:1011800031010008C0020020C0080020C004002077
:10119000C004002031490143314A1160704770B5E5
:1011A000002100230F22C47804B32D4C246804F4DA
:1011B000E064C4F5E064210AC1F10403CA40447844
:1011C00004FA03F18478144021430901254C067880
:1011D000A155047804F01F050124AC4005786D1179
:1011E000AD0005F1E025C5F8004109E0047804F000
:1011F0001F050124AC401C4D0678761145F82640A9
:1012000070BD1A4A0A400243154B1B1F1A607047F3
:1012100039B1134A121D12680243114B1B1D1A608B
:1012200006E00F4A121D126882430D4B1B1D1A6007
:101230007047042808D14FF0E021096941F004010A
:101240004FF0E022116107E04FF0E021096921F041
:1012500004014FF0E0221161704700000000FA0520
:101260000CED00E000E400E080E100E080FFFF1F03
:1012700010B50446CC48844208D10121042000F076
:101280002DFB0021042000F029FB46E0C7488442E2
:1012900008D10121082000F021FB0021082000F0E6
:1012A0001DFB3AE0C248844208D10121102000F021
:1012B00015FB0021102000F011FB2EE0BD488442F8
:1012C00008D10121202000F009FB0021202000F09E
:1012D00005FB22E0B848844208D10121402000F0FB
:1012E000FDFA0021402000F0F9FA16E0B3488442EC
:1012F00008D10121802000F0F1FA0021802000F0C7
:10130000EDFA0AE0AE48844207D10121801500F0D1
:10131000E5FA0021A01500F0E1FA10BD10B5012199
:10132000084600F0DBFA0021012000F0D7FA10BDDA
:101330002DE9F0410246002500260020002300246C
:10134000002791F803C00CF00F0591F803C00CF0D2
:10135000100CBCF1000F03D091F802C04CEA050557
:1013600091F800C0BCF1000F31D0146800202BE0D0
:101370004FF0010C0CFA00F3B1F800C00CEA0306C0
:101380009E4220D183004FF00F0C0CFA03F7BC43B0
:1013900005FA03FC4CEA040491F803C0BCF1280FE1
:1013A00006D14FF0010C0CFA00FCC2F814C00AE0A0
:1013B00091F803C0BCF1480F05D14FF0010C0CFAB5
:1013C00000FCC2F810C0401C0828D1D31460B1F84A
:1013D00000C0BCF1FF0F34DD546800202EE000F1A6
:1013E000080C4FF0010808FA0CF3B1F800C00CEA41
:1013F00003069E4221D183004FF00F0C0CFA03F735
:10140000BC4305FA03FC4CEA040491F803C0BCF1A8
:10141000280F05D100F1080C08FA0CF8C2F8148066
:1014200091F803C0BCF1480F07D100F1080C4FF050
:10143000010808FA0CF8C2F81080401C0828CED326
:101440005460BDE8F0814FF6FF7101800221817088
:101450000421C17070470246002093680B400BB115
:10146000012000E0002070470146886880B2704784
:1014700002460020D3680B400BB1012000E00020A1
:1014800070470146C86880B270470161704741618A
:1014900070470AB1016100E041617047C160704767
:1014A0004FF480320A43826181618261826982697C
:1014B000704702460020434B18684FF6807318406F
:1014C00040EA021008433F4B186070473E49C8612C
:1014D0007047F0B50A46002300240021002500F0E3
:1014E0000046B6F1004F02D1364EF16901E0354EAB
:1014F0007168C0F3034583B200F44016B6F5401F8F
:1015000008D121F070612F4E766826F070662D4F5D
:101510007E6012E000F48016B6F5801F06D1032627
:1015200006FA05F4A14341F0706106E0460D36016C
:1015300003FA06F6B14341F0706122B1460D36015F
:1015400003FA06F6314300F00046B6F1004F02D12F
:101550001C4EF16101E01B4E7160F0BD30B5002200
:101560008B071C0F0F2303FA04F2164B08338C1061
:1015700053F824309343134C08348D1044F825302D
:1015800023468C1053F824308C07240F00FA04F4FF
:1015900023430C4C08348D1044F8253030BD0A49E3
:1015A000DC3108607047000000080140000C014079
:1015B000001001400014014000180140001C0140CF
:1015C000002001400000014000002042DF48006888
:1015D00040F00100DD49086008464068DC490840E9
:1015E000DA49486008460068DA490840D749086087
:1015F0000846006820F4802008600846406820F40F
:10160000FE0048604FF41F0088607047CF490968AA
:1016100021F48031CD4A11601146096821F48021FE
:101620001160B0F5803F03D0B0F5802F0ED106E0F9
:10163000C649096841F48031C44A116007E0C349D2
:10164000096841F4A021C14A116000E000BF00BF59
:10165000704710B501460022002300204A11012ADC
:1016600002D1BA4C236806E0022A02D1B74C236AA1
:1016700001E0B64C636A01F01F02012494401C4053
:101680000CB1012000E0002010BD38B50020009012
:101690000024002500BF3120FFF7DBFF054600983E
:1016A000401C00900098B0F5A06F01D0002DF2D042
:1016B0003120FFF7CEFF08B1012400E000242046CE
:1016C00038BD01460020A14A106820F0F80040EA29
:1016D000C10010607047A0490860704702460020B2
:1016E0009A4B586820F47C1042EA01031843974B48
:1016F0005860704798490866704701460020934A31
:10170000506820F003000843506070478F484068DD
:1017100000F00C007047014600208C4A506820F011
:10172000F00008435060704701460020874A506827
:1017300020F4E06008435060704701460020834A6F
:10174000506820F4605040EAC1005060704729B1F1
:101750007E4A527A02437D4B5A7204E07B4A527AA7
:1017600082437A4B5A7270477B49D8310860704780
:1017700001460020754A506820F4404008435060FC
:1017800070470021714A20321170704A82F820108F
:10179000012802D004280AD104E001216B4A20323A
:1017A000117005E00521694A2032117000E000BF88
:1017B00000BF70476949086070476449096A01437E
:1017C000624A11627047654944390860704730B514
:1017D00000210022002400235C4D6D6805F00C01FF
:1017E00021B1042905D0082923D105E05C4D05600D
:1017F00022E05B4D05601FE0544D6D6805F47012EA
:10180000524D6D6805F48034022505EB92421CB9F7
:10181000544D554305600BE04C4D6D6805F40035A3
:101820001DB1504D5543056002E04D4D55430560D7
:1018300002E04B4D056000BF00BF444D6D6805F0F0
:10184000F0010909484D6B5C0568DD4045603F4D7E
:101850006D6805F4E061090A434D6B5C4568DD4045
:1018600085603A4D6D6805F46051C90A3E4D6B5C68
:101870004568DD40C560354D6D6805F44041890B14
:101880003A4D6B5CC568B5FBF3F5056130BD29B118
:101890002E4A526902432D4B5A6104E02B4A526989
:1018A00082432A4B5A61704729B1284A9269024300
:1018B000264B9A6104E0254A92698243234B9A6140
:1018C000704729B1214AD2690243204BDA6104E012
:1018D0001E4AD26982431D4BDA61704729B11B4A07
:1018E000D2680243194BDA6004E0184AD268824396
:1018F000164BDA60704729B1144A12690243134B40
:101900001A6104E0114A12698243104B1A61704750
:1019100012494039086070470F49C86470470B4945
:10192000C87170470948406A40F0807007494862B2
:10193000704701460020054A92680A400AB101201A
:1019400000E0002070470149887270470010024093
:101950000000FFF8FFFFF6FE000042428004424212
:1019600000127A0000093D005400002064000020AD
:1019700010B50446FB48844209D101218803FFF7D2
:10198000ADFF00214FF48040FFF7A8FF32E0F6489A
:10199000844209D101214804FFF7ADFF00214FF433
:1019A0000030FFF7A8FF25E0F048844209D101216B
:1019B0008804FFF7A0FF00214FF48020FFF79BFF72
:1019C00018E0EB48844209D10121C804FFF793FFD6
:1019D00000214FF40020FFF78EFF0BE0E548844222
:1019E00008D101210805FFF786FF00214FF4801080
:1019F000FFF781FF10BD2DE9F04786B005460E4682
:101A00000024A24600BFA1460027B08900B100BF54
:101A10002F462C8A4CF6FF700440F08804432C8239
:101A2000AC894EF6F3100440B088318908437189BF
:101A300008430443AC81AC8A4FF6FF400440B089B0
:101A40000443AC8201A8FFF7C2FEC648874202D118
:101A5000DDF810A001E0DDF80CA0A88900F400403A
:101A600040B10AEBCA0000EB0A1031684900B0FB34
:101A7000F1F807E00AEBCA0000EB0A1031688900B0
:101A8000B0FBF1F86420B8FBF0F0040120096421F8
:101A900001FB1089A88900F4004040B1322000EB1E
:101AA000C900B0FBF1F000F00700044308E0322069
:101AB00000EB09106421B0FBF1F000F00F000443CB
:101AC0002C8106B0BDE8F0874FF41651016000216B
:101AD0008180C18001810C21418100218181704779
:101AE00010B502460020108A4FF2FF0318400B8801
:101AF0004C8823438C882343CC882343184310828B
:101B000010BD0021018041808180C180704721B1DA
:101B1000828942F40052828104E082894DF6FF738B
:101B20001A4082817047F0B5034600240026002544
:101B3000002040F66A17B94200D100BF1846C1F331
:101B4000421401F01F06012707FA06F5012C01D106
:101B50000C3004E0022C01D1103000E014301AB136
:101B600007682F43076002E00768AF430760F0BDD6
:101B70001AB1838A0B43838202E0838A8B43838278
:101B80007047028A4FF6F0731A400282028A0A43B3
:101B90000282704782894FF2FF731A4082818289E4
:101BA0000A438281704721B1828942F00202828118
:101BB00004E082894FF6FD731A4082817047028AE1
:101BC0004FF6DF731A400282028A0A43028270478C
:101BD00021B1028A42F48042028204E0028A4BF67A
:101BE000FF731A4002827047C1F308028280704777
:101BF00001468888C0F308007047818941F00101DF
:101C000081817047028BD2B20283028B42EA0122A9
:101C100002837047028B02F47F420283028B0A43E5
:101C20000283704721B1828A42F02002828204E05E
:101C3000828A4FF6DF731A408282704721B1828A0E
:101C400042F01002828204E0828A4FF6EF731A405B
:101C50008282704721B1828A42F00802828204E0C7
:101C6000828A4FF6F7731A408282704721B18289C7
:101C700042F40042828103E08289C2F30E02828133
:101C8000704721B1828A42F40062828204E0828A33
:101C90004FF2FF731A4082827047828A4FF6FB73BD
:101CA0001A408282828A0A438282704721B1828AE4
:101CB00042F00202828204E0828A4FF6FD731A40EB
:101CC0008282704702460020B1F5007F00D100BF3C
:101CD00013880B400BB1012000E00020704701F495
:101CE0000072B2F5007F00D100BFCA430280704786
:101CF00070B50246002400230025002040F66A1635
:101D0000B14200D100BFC1F3421501F01F0301260B
:101D100006FA03F3012D02D19689334006E0022D25
:101D200002D1168A334001E0968A33400C12012614
:101D300006FA04F41688344013B10CB1012000E017
:101D4000002070BD10B50022002340F66A14A142A5
:101D500000D100BF0A1201249440A3B2DC430480E6
:101D600010BD000000380140004400400048004021
:101D7000004C004000500040704700000FB4044980
:101D800010B503AA029800F009F810BC5DF814FB26
:101D90001C0000207047704770477047074B70B5B4
:101DA0000D467B4400F011F80446284600F020F868
:101DB00010B14FF0FF3070BD204670BDA9E9FFFFA4
:101DC00001694A1C02610878704700B58FB0CDE9FF
:101DD00001310021059105497944CDE903101146EF
:101DE000684600F032F80FB000BD0000E5FFFFFFCD
:101DF000007B00F0800070470048704760020020C0
:101E00007546FFF7F9FFAE4605006946534620F0D8
:101E10000700854618B020B5FFF7AAF9BDE82040B5
:101E20004FF000064FF000074FF000084FF0000B96
:101E300021F00701AC46ACE8C009ACE8C009ACE849
:101E4000C009ACE8C0098D4670472DE9F04106464F
:101E50000024D6E90170F5688046304603E041462B
:101E6000B847641C3046A8470028F8D12046BDE892
:101E7000F0810446AFF300802046FEF7A0F9491038
:101E800058BFC1F140415B1058BFC3F140438B4282
:101E9000EFF300807047000051EA030C17D41CF5E3
:101EA000801F58BFBCF5801F00F10680994218BF03
:101EB000704708BF9042704707D711F5801F58BF81
:101EC00013F5801F19D499427047894270471CF559
:101ED000801F08D5BCF5801FF7D58B4218BF70470F
:101EE00008BF824270474FF4001C1CEB410F38BF03
:101EF0001CEB430F01D28B42704770B500F022F902
:101F0000922449004FF000514FF08053FFF7B7BFC4
:101F10004FEA41034FEA5353A3F58063D3F11E0305
:101F2000C8BFD3F1210C0CDD4FF0004242EAC122C0
:101F300042EA505232FA03FC8CEAE17CACEBE170ED
:101F40007047102BC4BF0020704703F5787CBCF1AC
:101F5000FF3F04D06FF0004282EA2100704770B565
:101F600000F0F0F84992248000207047F2E700006A
:101F70004FEA1153A3F58063D3F11E03A8BFD3F139
:101F8000200C08DB4FF0004242EAC12252EA5052D4
:101F900032FA03F0704709420BD4102BC4BF002063
:101FA000704703F5787CBCF1FF3F05D04FF0FF3060
:101FB00070474FF00000704770B500F0C3F800BFE5
:101FC0004992248000207047F0E7B0FA80F310FABD
:101FD00003F10AD0C3F11D0303F580634FEA4150BA
:101FE0004FEA035202EBD12170474FF000007047D7
:101FF000DFF848C170B51CEA111E1EBF1CEA13159C
:102000009EEA0C0F95EA0C0F00F06F8081EA030442
:1020100023EA4C134EEAD47E21EA4C1141F480119C
:1020200043F48013AE44A1FB024CA0FB0365AEF168
:102030007F7E361955EB0C05A1FB034C4CF10003D8
:10204000A0FB021C16EB0C06654153F1000309428C
:1020500018BF46F0010613F4007F0BD14FEA03319D
:102060004FEA0530340341EA155140EA16506FF04B
:1020700003020AE04FEAC3214FEAC520F40241EA15
:10208000555140EA56506FF0020202EB2E4201EB2E
:10209000025585EACE710AD05FEA440C18BF24F0DD
:1020A000004450F1000041F1000120EAD47040F2F8
:1020B000FE7C624500D270BDA84214BF4FF0804440
:1020C0004FF04044002E08BF0024BEF1806FA8BF2F
:1020D000A1F1C041BDE8704080F282804FF0000065
:1020E00001F1C04101F0004170479EEA0C0F0CEA7B
:1020F000131518BF95EA0C0F06D04FF0000081EAC7
:10210000030E0EF0004170BD00F01CF88900013E86
:1021100000F007B800F009B84FEA430C5FEA5C5CD6
:1021200008D081EA030100F05BB84FEA410C5FEA96
:102130005C5CF6D14FF00000014970470000FF07DA
:102140000000F87F0EF1020E2EF0030E5EF8046B15
:10215000364205D4012A43EB030515F5001F12D8BA
:10216000012841EB010C1CF5001F0CD80ED14FEAE1
:10217000D17C15F5001F0CEB4C0C0CF1020C08BFC8
:102180004CEBD37C04E04FF0080C01E04FEAD37C29
:102190000CEB4C0526FA05F606F00706B6F1040C22
:1021A00006D20EEB860CBDE870404CF0010C604787
:1021B000DFE80CF0090B02024FF000414FF0000085
:1021C000A1F5002170BD19461046012851EB01040C
:1021D00018BFD4F5001484BF002001F0004170BD89
:1021E0000808A0F500114FEA310170470C220008E1
:1021F00000000020680000006C0100087422000844
:1022000068000020580800008801000800A24A0465
:102210000000000000000000010203040607080996
:1022200001000000000000000000000000000000AD
:10223000000000000000000000000000000000009E
:10224000000000000000000000000000000000008E
:10225000000000000000000000000000000000007E
:10226000000000000102030401020304060708093C
:042270000204060856
:0400000508000131BD
:00000001FF
